{
  "_format": "hh-sol-artifact-1",
  "contractName": "ImageReport",
  "sourceName": "contracts/imageReport.sol",
  "abi": [
    {
      "inputs": [
        {
          "internalType": "address",
          "name": "_user",
          "type": "address"
        },
        {
          "internalType": "address",
          "name": "_doctor",
          "type": "address"
        },
        {
          "internalType": "string",
          "name": "_reportType",
          "type": "string"
        },
        {
          "internalType": "string",
          "name": "_originalImage",
          "type": "string"
        },
        {
          "internalType": "string",
          "name": "_maskedImage",
          "type": "string"
        }
      ],
      "stateMutability": "nonpayable",
      "type": "constructor"
    },
    {
      "inputs": [
        {
          "internalType": "address",
          "name": "_doctor",
          "type": "address"
        }
      ],
      "name": "addDoctor",
      "outputs": [],
      "stateMutability": "nonpayable",
      "type": "function"
    },
    {
      "inputs": [
        {
          "internalType": "address",
          "name": "_owner",
          "type": "address"
        }
      ],
      "name": "addOwner",
      "outputs": [],
      "stateMutability": "nonpayable",
      "type": "function"
    },
    {
      "inputs": [],
      "name": "getAnalysis",
      "outputs": [
        {
          "internalType": "string",
          "name": "",
          "type": "string"
        }
      ],
      "stateMutability": "view",
      "type": "function"
    },
    {
      "inputs": [],
      "name": "getDiagnosis",
      "outputs": [
        {
          "internalType": "string",
          "name": "",
          "type": "string"
        }
      ],
      "stateMutability": "view",
      "type": "function"
    },
    {
      "inputs": [],
      "name": "getMaskedImage",
      "outputs": [
        {
          "internalType": "string",
          "name": "",
          "type": "string"
        }
      ],
      "stateMutability": "view",
      "type": "function"
    },
    {
      "inputs": [],
      "name": "getOriginalImage",
      "outputs": [
        {
          "internalType": "string",
          "name": "",
          "type": "string"
        }
      ],
      "stateMutability": "view",
      "type": "function"
    },
    {
      "inputs": [],
      "name": "getReportType",
      "outputs": [
        {
          "internalType": "string",
          "name": "",
          "type": "string"
        }
      ],
      "stateMutability": "view",
      "type": "function"
    },
    {
      "inputs": [],
      "name": "getSignature",
      "outputs": [
        {
          "internalType": "string",
          "name": "",
          "type": "string"
        }
      ],
      "stateMutability": "view",
      "type": "function"
    },
    {
      "inputs": [
        {
          "internalType": "address",
          "name": "",
          "type": "address"
        }
      ],
      "name": "isDoctor",
      "outputs": [
        {
          "internalType": "bool",
          "name": "",
          "type": "bool"
        }
      ],
      "stateMutability": "view",
      "type": "function"
    },
    {
      "inputs": [
        {
          "internalType": "address",
          "name": "",
          "type": "address"
        }
      ],
      "name": "isOwner",
      "outputs": [
        {
          "internalType": "bool",
          "name": "",
          "type": "bool"
        }
      ],
      "stateMutability": "view",
      "type": "function"
    },
    {
      "inputs": [
        {
          "internalType": "string",
          "name": "_analysis",
          "type": "string"
        },
        {
          "internalType": "string",
          "name": "_diagnosis",
          "type": "string"
        },
        {
          "internalType": "string",
          "name": "_signature",
          "type": "string"
        }
      ],
      "name": "setData",
      "outputs": [],
      "stateMutability": "nonpayable",
      "type": "function"
    }
  ],
  "bytecode": "0x60806040526002805460ff191660011790553480156200001e57600080fd5b5060405162000aca38038062000aca833981016040819052620000419162000266565b6001600160a01b038581166000908152602081815260408083208054600160ff199182168117909255948916845281842080548616821790558083529220805490931690911790915582516200009e9160039190850190620000d6565b508051620000b4906004906020840190620000d6565b508251620000ca906007906020860190620000d6565b5050505050506200035a565b828054620000e4906200031e565b90600052602060002090601f01602090048101928262000108576000855562000153565b82601f106200012357805160ff191683800117855562000153565b8280016001018555821562000153579182015b828111156200015357825182559160200191906001019062000136565b506200016192915062000165565b5090565b5b8082111562000161576000815560010162000166565b80516001600160a01b03811681146200019457600080fd5b919050565b634e487b7160e01b600052604160045260246000fd5b600082601f830112620001c157600080fd5b81516001600160401b0380821115620001de57620001de62000199565b604051601f8301601f19908116603f0116810190828211818310171562000209576200020962000199565b816040528381526020925086838588010111156200022657600080fd5b600091505b838210156200024a57858201830151818301840152908201906200022b565b838211156200025c5760008385830101525b9695505050505050565b600080600080600060a086880312156200027f57600080fd5b6200028a866200017c565b94506200029a602087016200017c565b60408701519094506001600160401b0380821115620002b857600080fd5b620002c689838a01620001af565b94506060880151915080821115620002dd57600080fd5b620002eb89838a01620001af565b935060808801519150808211156200030257600080fd5b506200031188828901620001af565b9150509295509295909350565b600181811c908216806200033357607f821691505b6020821081036200035457634e487b7160e01b600052602260045260246000fd5b50919050565b610760806200036a6000396000f3fe608060405234801561001057600080fd5b50600436106100a95760003560e01c80634780468f116100715780634780468f146101245780635688f837146101375780637065cb481461013f5780638a4e376914610152578063996440c61461015a578063eda43fcd1461017d57600080fd5b8063280af7d3146100ae5780632ab6aa94146100c35780632f54bf6e146100e1578063412311251461011457806344a531721461011c575b600080fd5b6100c16100bc36600461059d565b610185565b005b6100cb6102c9565b6040516100d89190610625565b60405180910390f35b6101046100ef36600461067a565b60006020819052908152604090205460ff1681565b60405190151581526020016100d8565b6100cb61035b565b6100cb61036a565b6100c161013236600461067a565b610379565b6100cb6103e1565b6100c161014d36600461067a565b6103f0565b6100cb610443565b61010461016836600461067a565b60016020526000908152604090205460ff1681565b6100cb610452565b3360009081526020819052604090205460ff166101bd5760405162461bcd60e51b81526004016101b4906106aa565b60405180910390fd5b3360009081526001602052604090205460ff1661022c5760405162461bcd60e51b815260206004820152602760248201527f4f6e6c792074686520646f63746f722063616e20706572666f726d20746869736044820152661030b1ba34b7b760c91b60648201526084016101b4565b60025460ff1661027e5760405162461bcd60e51b815260206004820181905260248201527f546865207265706f7274206973206e6f206c6f6e676572206564697461626c6560448201526064016101b4565b8251610291906005906020860190610461565b5081516102a5906006906020850190610461565b5080516102b9906008906020840190610461565b50506002805460ff191690555050565b6060600780546102d8906106f0565b80601f0160208091040260200160405190810160405280929190818152602001828054610304906106f0565b80156103515780601f1061032657610100808354040283529160200191610351565b820191906000526020600020905b81548152906001019060200180831161033457829003601f168201915b5050505050905090565b6060600680546102d8906106f0565b6060600580546102d8906106f0565b3360009081526020819052604090205460ff166103a85760405162461bcd60e51b81526004016101b4906106aa565b6001600160a01b03166000908152602081815260408083208054600160ff19918216811790925592819052922080549091169091179055565b6060600380546102d8906106f0565b3360009081526020819052604090205460ff1661041f5760405162461bcd60e51b81526004016101b4906106aa565b6001600160a01b03166000908152602081905260409020805460ff19166001179055565b6060600880546102d8906106f0565b6060600480546102d8906106f0565b82805461046d906106f0565b90600052602060002090601f01602090048101928261048f57600085556104d5565b82601f106104a857805160ff19168380011785556104d5565b828001600101855582156104d5579182015b828111156104d55782518255916020019190600101906104ba565b506104e19291506104e5565b5090565b5b808211156104e157600081556001016104e6565b634e487b7160e01b600052604160045260246000fd5b600082601f83011261052157600080fd5b813567ffffffffffffffff8082111561053c5761053c6104fa565b604051601f8301601f19908116603f01168101908282118183101715610564576105646104fa565b8160405283815286602085880101111561057d57600080fd5b836020870160208301376000602085830101528094505050505092915050565b6000806000606084860312156105b257600080fd5b833567ffffffffffffffff808211156105ca57600080fd5b6105d687838801610510565b945060208601359150808211156105ec57600080fd5b6105f887838801610510565b9350604086013591508082111561060e57600080fd5b5061061b86828701610510565b9150509250925092565b600060208083528351808285015260005b8181101561065257858101830151858201604001528201610636565b81811115610664576000604083870101525b50601f01601f1916929092016040019392505050565b60006020828403121561068c57600080fd5b81356001600160a01b03811681146106a357600080fd5b9392505050565b60208082526026908201527f4f6e6c7920746865206f776e65722063616e20706572666f726d20746869732060408201526530b1ba34b7b760d11b606082015260800190565b600181811c9082168061070457607f821691505b60208210810361072457634e487b7160e01b600052602260045260246000fd5b5091905056fea26469706673582212203b35d1dcbba2eae7d1c2d0a4f2e66b2a3a1d3f193b574d7ecf9325d6ea7cc09864736f6c634300080d0033",
  "linkReferences": {},
  "deployedLinkReferences": {}
}