{
  "_format": "hh-sol-artifact-1",
  "contractName": "Master",
  "sourceName": "contracts/Master.sol",
  "abi": [
    {
      "inputs": [],
      "stateMutability": "nonpayable",
      "type": "constructor"
    },
    {
      "inputs": [
        {
          "internalType": "address",
          "name": "_user",
          "type": "address"
        },
        {
          "internalType": "address",
          "name": "_doctor",
          "type": "address"
        },
        {
          "internalType": "string",
          "name": "_reportType",
          "type": "string"
        },
        {
          "internalType": "string",
          "name": "_originalImage",
          "type": "string"
        },
        {
          "internalType": "string",
          "name": "_maskedImage",
          "type": "string"
        }
      ],
      "name": "createImageReport",
      "outputs": [
        {
          "internalType": "address",
          "name": "",
          "type": "address"
        }
      ],
      "stateMutability": "nonpayable",
      "type": "function"
    },
    {
      "inputs": [
        {
          "internalType": "address",
          "name": "",
          "type": "address"
        },
        {
          "internalType": "uint256",
          "name": "",
          "type": "uint256"
        }
      ],
      "name": "userReports",
      "outputs": [
        {
          "internalType": "address",
          "name": "",
          "type": "address"
        }
      ],
      "stateMutability": "view",
      "type": "function"
    }
  ],
  "bytecode": "0x608060405234801561001057600080fd5b50600180546001600160a01b031916331790556110a4806100326000396000f3fe608060405234801561001057600080fd5b50600436106100365760003560e01c80635a345e461461003b578063aa57790e1461006a575b600080fd5b61004e610049366004610227565b61007d565b6040516001600160a01b03909116815260200160405180910390f35b61004e6100783660046102f4565b6100b5565b6000602052816000526040600020818154811061009957600080fd5b6000918252602090912001546001600160a01b03169150829050565b6001546000906001600160a01b031633146101255760405162461bcd60e51b815260206004820152602660248201527f4f6e6c7920746865206f776e65722063616e20706572666f726d20746869732060448201526530b1ba34b7b760d11b606482015260840160405180910390fd5b600080876001600160a01b03166001600160a01b03168152602001908152602001600020868686868660405161015a906101fe565b6101689594939291906103eb565b604051809103906000f080158015610184573d6000803e3d6000fd5b508154600180820184556000938452602080852090920180546001600160a01b0319166001600160a01b0394851617905591891683528290526040909120805490916101cf91610449565b815481106101df576101df61046e565b6000918252602090912001546001600160a01b03169695505050505050565b610bea8061048583390190565b80356001600160a01b038116811461022257600080fd5b919050565b6000806040838503121561023a57600080fd5b6102438361020b565b946020939093013593505050565b634e487b7160e01b600052604160045260246000fd5b600082601f83011261027857600080fd5b813567ffffffffffffffff8082111561029357610293610251565b604051601f8301601f19908116603f011681019082821181831017156102bb576102bb610251565b816040528381528660208588010111156102d457600080fd5b836020870160208301376000602085830101528094505050505092915050565b600080600080600060a0868803121561030c57600080fd5b6103158661020b565b94506103236020870161020b565b9350604086013567ffffffffffffffff8082111561034057600080fd5b61034c89838a01610267565b9450606088013591508082111561036257600080fd5b61036e89838a01610267565b9350608088013591508082111561038457600080fd5b5061039188828901610267565b9150509295509295909350565b6000815180845260005b818110156103c4576020818501810151868301820152016103a8565b818111156103d6576000602083870101525b50601f01601f19169290920160200192915050565b6001600160a01b0386811682528516602082015260a0604082018190526000906104179083018661039e565b8281036060840152610429818661039e565b9050828103608084015261043d818561039e565b98975050505050505050565b60008282101561046957634e487b7160e01b600052601160045260246000fd5b500390565b634e487b7160e01b600052603260045260246000fdfe60806040526002805460ff191660011790553480156200001e57600080fd5b5060405162000bea38038062000bea833981016040819052620000419162000266565b6001600160a01b038581166000908152602081815260408083208054600160ff199182168117909255948916845281842080548616821790558083529220805490931690911790915582516200009e9160039190850190620000d6565b508051620000b4906004906020840190620000d6565b508251620000ca906007906020860190620000d6565b5050505050506200035a565b828054620000e4906200031e565b90600052602060002090601f01602090048101928262000108576000855562000153565b82601f106200012357805160ff191683800117855562000153565b8280016001018555821562000153579182015b828111156200015357825182559160200191906001019062000136565b506200016192915062000165565b5090565b5b8082111562000161576000815560010162000166565b80516001600160a01b03811681146200019457600080fd5b919050565b634e487b7160e01b600052604160045260246000fd5b600082601f830112620001c157600080fd5b81516001600160401b0380821115620001de57620001de62000199565b604051601f8301601f19908116603f0116810190828211818310171562000209576200020962000199565b816040528381526020925086838588010111156200022657600080fd5b600091505b838210156200024a57858201830151818301840152908201906200022b565b838211156200025c5760008385830101525b9695505050505050565b600080600080600060a086880312156200027f57600080fd5b6200028a866200017c565b94506200029a602087016200017c565b60408701519094506001600160401b0380821115620002b857600080fd5b620002c689838a01620001af565b94506060880151915080821115620002dd57600080fd5b620002eb89838a01620001af565b935060808801519150808211156200030257600080fd5b506200031188828901620001af565b9150509295509295909350565b600181811c908216806200033357607f821691505b6020821081036200035457634e487b7160e01b600052602260045260246000fd5b50919050565b610880806200036a6000396000f3fe608060405234801561001057600080fd5b50600436106100a95760003560e01c80634780468f116100715780634780468f146101245780635688f837146101375780637065cb481461013f5780638a4e376914610152578063996440c61461015a578063eda43fcd1461017d57600080fd5b8063280af7d3146100ae5780632ab6aa94146100c35780632f54bf6e146100e1578063412311251461011457806344a531721461011c575b600080fd5b6100c16100bc3660046106bd565b610185565b005b6100cb6102c9565b6040516100d89190610745565b60405180910390f35b6101046100ef36600461079a565b60006020819052908152604090205460ff1681565b60405190151581526020016100d8565b6100cb61038b565b6100cb6103ca565b6100c161013236600461079a565b610409565b6100cb610471565b6100c161014d36600461079a565b6104b0565b6100cb610503565b61010461016836600461079a565b60016020526000908152604090205460ff1681565b6100cb610542565b3360009081526020819052604090205460ff166101bd5760405162461bcd60e51b81526004016101b4906107ca565b60405180910390fd5b3360009081526001602052604090205460ff1661022c5760405162461bcd60e51b815260206004820152602760248201527f4f6e6c792074686520646f63746f722063616e20706572666f726d20746869736044820152661030b1ba34b7b760c91b60648201526084016101b4565b60025460ff1661027e5760405162461bcd60e51b815260206004820181905260248201527f546865207265706f7274206973206e6f206c6f6e676572206564697461626c6560448201526064016101b4565b8251610291906005906020860190610581565b5081516102a5906006906020850190610581565b5080516102b9906008906020840190610581565b50506002805460ff191690555050565b3360009081526020819052604090205460609060ff166102fb5760405162461bcd60e51b81526004016101b4906107ca565b6007805461030890610810565b80601f016020809104026020016040519081016040528092919081815260200182805461033490610810565b80156103815780601f1061035657610100808354040283529160200191610381565b820191906000526020600020905b81548152906001019060200180831161036457829003601f168201915b5050505050905090565b3360009081526020819052604090205460609060ff166103bd5760405162461bcd60e51b81526004016101b4906107ca565b6006805461030890610810565b3360009081526020819052604090205460609060ff166103fc5760405162461bcd60e51b81526004016101b4906107ca565b6005805461030890610810565b3360009081526020819052604090205460ff166104385760405162461bcd60e51b81526004016101b4906107ca565b6001600160a01b03166000908152602081815260408083208054600160ff19918216811790925592819052922080549091169091179055565b3360009081526020819052604090205460609060ff166104a35760405162461bcd60e51b81526004016101b4906107ca565b6003805461030890610810565b3360009081526020819052604090205460ff166104df5760405162461bcd60e51b81526004016101b4906107ca565b6001600160a01b03166000908152602081905260409020805460ff19166001179055565b3360009081526020819052604090205460609060ff166105355760405162461bcd60e51b81526004016101b4906107ca565b6008805461030890610810565b3360009081526020819052604090205460609060ff166105745760405162461bcd60e51b81526004016101b4906107ca565b6004805461030890610810565b82805461058d90610810565b90600052602060002090601f0160209004810192826105af57600085556105f5565b82601f106105c857805160ff19168380011785556105f5565b828001600101855582156105f5579182015b828111156105f55782518255916020019190600101906105da565b50610601929150610605565b5090565b5b808211156106015760008155600101610606565b634e487b7160e01b600052604160045260246000fd5b600082601f83011261064157600080fd5b813567ffffffffffffffff8082111561065c5761065c61061a565b604051601f8301601f19908116603f011681019082821181831017156106845761068461061a565b8160405283815286602085880101111561069d57600080fd5b836020870160208301376000602085830101528094505050505092915050565b6000806000606084860312156106d257600080fd5b833567ffffffffffffffff808211156106ea57600080fd5b6106f687838801610630565b9450602086013591508082111561070c57600080fd5b61071887838801610630565b9350604086013591508082111561072e57600080fd5b5061073b86828701610630565b9150509250925092565b600060208083528351808285015260005b8181101561077257858101830151858201604001528201610756565b81811115610784576000604083870101525b50601f01601f1916929092016040019392505050565b6000602082840312156107ac57600080fd5b81356001600160a01b03811681146107c357600080fd5b9392505050565b60208082526026908201527f4f6e6c7920746865206f776e65722063616e20706572666f726d20746869732060408201526530b1ba34b7b760d11b606082015260800190565b600181811c9082168061082457607f821691505b60208210810361084457634e487b7160e01b600052602260045260246000fd5b5091905056fea2646970667358221220f9aa59f2542d75e4c887febac7ed7195caf504ed1275c34d417e978f46df190864736f6c634300080d0033a2646970667358221220163691693cddc2448dfbc682ccbddb6d454d6c465e9d63b6aedf0bafbe57697764736f6c634300080d0033",
  "linkReferences": {},
  "deployedLinkReferences": {}
}