{
  "_format": "hh-sol-artifact-1",
  "contractName": "Master",
  "sourceName": "contracts/Master.sol",
  "abi": [
    {
      "inputs": [],
      "stateMutability": "nonpayable",
      "type": "constructor"
    },
    {
      "inputs": [
        {
          "internalType": "address",
          "name": "_user",
          "type": "address"
        },
        {
          "internalType": "address",
          "name": "_doctor",
          "type": "address"
        },
        {
          "internalType": "string",
          "name": "_reportType",
          "type": "string"
        },
        {
          "internalType": "string",
          "name": "_originalImage",
          "type": "string"
        },
        {
          "internalType": "string",
          "name": "_maskedImage",
          "type": "string"
        }
      ],
      "name": "createImageReport",
      "outputs": [
        {
          "internalType": "address",
          "name": "",
          "type": "address"
        }
      ],
      "stateMutability": "nonpayable",
      "type": "function"
    },
    {
      "inputs": [
        {
          "internalType": "address",
          "name": "",
          "type": "address"
        },
        {
          "internalType": "uint256",
          "name": "",
          "type": "uint256"
        }
      ],
      "name": "userReports",
      "outputs": [
        {
          "internalType": "address",
          "name": "",
          "type": "address"
        }
      ],
      "stateMutability": "view",
      "type": "function"
    }
  ],
  "bytecode": "0x608060405234801561001057600080fd5b50600180546001600160a01b03191633179055610fc3806100326000396000f3fe608060405234801561001057600080fd5b50600436106100365760003560e01c80635a345e461461003b578063aa57790e1461006a575b600080fd5b61004e610049366004610227565b61007d565b6040516001600160a01b03909116815260200160405180910390f35b61004e6100783660046102f4565b6100b5565b6000602052816000526040600020818154811061009957600080fd5b6000918252602090912001546001600160a01b03169150829050565b6001546000906001600160a01b031633146101255760405162461bcd60e51b815260206004820152602660248201527f4f6e6c7920746865206f776e65722063616e20706572666f726d20746869732060448201526530b1ba34b7b760d11b606482015260840160405180910390fd5b600080876001600160a01b03166001600160a01b03168152602001908152602001600020868686868660405161015a906101fe565b6101689594939291906103eb565b604051809103906000f080158015610184573d6000803e3d6000fd5b508154600180820184556000938452602080852090920180546001600160a01b0319166001600160a01b0394851617905591891683528290526040909120805490916101cf91610449565b815481106101df576101df61046e565b6000918252602090912001546001600160a01b03169695505050505050565b610b098061048583390190565b80356001600160a01b038116811461022257600080fd5b919050565b6000806040838503121561023a57600080fd5b6102438361020b565b946020939093013593505050565b634e487b7160e01b600052604160045260246000fd5b600082601f83011261027857600080fd5b813567ffffffffffffffff8082111561029357610293610251565b604051601f8301601f19908116603f011681019082821181831017156102bb576102bb610251565b816040528381528660208588010111156102d457600080fd5b836020870160208301376000602085830101528094505050505092915050565b600080600080600060a0868803121561030c57600080fd5b6103158661020b565b94506103236020870161020b565b9350604086013567ffffffffffffffff8082111561034057600080fd5b61034c89838a01610267565b9450606088013591508082111561036257600080fd5b61036e89838a01610267565b9350608088013591508082111561038457600080fd5b5061039188828901610267565b9150509295509295909350565b6000815180845260005b818110156103c4576020818501810151868301820152016103a8565b818111156103d6576000602083870101525b50601f01601f19169290920160200192915050565b6001600160a01b0386811682528516602082015260a0604082018190526000906104179083018661039e565b8281036060840152610429818661039e565b9050828103608084015261043d818561039e565b98975050505050505050565b60008282101561046957634e487b7160e01b600052601160045260246000fd5b500390565b634e487b7160e01b600052603260045260246000fdfe60806040526002805460ff191660011790553480156200001e57600080fd5b5060405162000b0938038062000b09833981016040819052620000419162000266565b6001600160a01b038581166000908152602081815260408083208054600160ff199182168117909255948916845281842080548616821790558083529220805490931690911790915582516200009e9160039190850190620000d6565b508051620000b4906004906020840190620000d6565b508251620000ca906007906020860190620000d6565b5050505050506200035a565b828054620000e4906200031e565b90600052602060002090601f01602090048101928262000108576000855562000153565b82601f106200012357805160ff191683800117855562000153565b8280016001018555821562000153579182015b828111156200015357825182559160200191906001019062000136565b506200016192915062000165565b5090565b5b8082111562000161576000815560010162000166565b80516001600160a01b03811681146200019457600080fd5b919050565b634e487b7160e01b600052604160045260246000fd5b600082601f830112620001c157600080fd5b81516001600160401b0380821115620001de57620001de62000199565b604051601f8301601f19908116603f0116810190828211818310171562000209576200020962000199565b816040528381526020925086838588010111156200022657600080fd5b600091505b838210156200024a57858201830151818301840152908201906200022b565b838211156200025c5760008385830101525b9695505050505050565b600080600080600060a086880312156200027f57600080fd5b6200028a866200017c565b94506200029a602087016200017c565b60408701519094506001600160401b0380821115620002b857600080fd5b620002c689838a01620001af565b94506060880151915080821115620002dd57600080fd5b620002eb89838a01620001af565b935060808801519150808211156200030257600080fd5b506200031188828901620001af565b9150509295509295909350565b600181811c908216806200033357607f821691505b6020821081036200035457634e487b7160e01b600052602260045260246000fd5b50919050565b61079f806200036a6000396000f3fe608060405234801561001057600080fd5b50600436106100935760003560e01c80635688f837116100665780635688f837146101025780637065cb481461010a5780638ca3c5531461011d578063996440c614610130578063eda43fcd1461015357600080fd5b80632f54bf6e1461009857806341231125146100d057806344a53172146100e55780634780468f146100ed575b600080fd5b6100bb6100a636600461055d565b60006020819052908152604090205460ff1681565b60405190151581526020015b60405180910390f35b6100d861015b565b6040516100c7919061058d565b6100d8610226565b6101006100fb36600461055d565b610265565b005b6100d86102cd565b61010061011836600461055d565b61030c565b61010061012b366004610685565b61035f565b6100bb61013e36600461055d565b60016020526000908152604090205460ff1681565b6100d8610485565b3360009081526020819052604090205460609060ff166101965760405162461bcd60e51b815260040161018d906106e9565b60405180910390fd5b600680546101a39061072f565b80601f01602080910402602001604051908101604052809291908181526020018280546101cf9061072f565b801561021c5780601f106101f15761010080835404028352916020019161021c565b820191906000526020600020905b8154815290600101906020018083116101ff57829003601f168201915b5050505050905090565b3360009081526020819052604090205460609060ff166102585760405162461bcd60e51b815260040161018d906106e9565b600580546101a39061072f565b3360009081526020819052604090205460ff166102945760405162461bcd60e51b815260040161018d906106e9565b6001600160a01b03166000908152602081815260408083208054600160ff19918216811790925592819052922080549091169091179055565b3360009081526020819052604090205460609060ff166102ff5760405162461bcd60e51b815260040161018d906106e9565b600380546101a39061072f565b3360009081526020819052604090205460ff1661033b5760405162461bcd60e51b815260040161018d906106e9565b6001600160a01b03166000908152602081905260409020805460ff19166001179055565b3360009081526020819052604090205460ff1661038e5760405162461bcd60e51b815260040161018d906106e9565b3360009081526001602052604090205460ff166103fd5760405162461bcd60e51b815260206004820152602760248201527f4f6e6c792074686520646f63746f722063616e20706572666f726d20746869736044820152661030b1ba34b7b760c91b606482015260840161018d565b60025460ff1661044f5760405162461bcd60e51b815260206004820181905260248201527f546865207265706f7274206973206e6f206c6f6e676572206564697461626c65604482015260640161018d565b81516104629060059060208501906104c4565b5080516104769060069060208401906104c4565b50506002805460ff1916905550565b3360009081526020819052604090205460609060ff166104b75760405162461bcd60e51b815260040161018d906106e9565b600480546101a39061072f565b8280546104d09061072f565b90600052602060002090601f0160209004810192826104f25760008555610538565b82601f1061050b57805160ff1916838001178555610538565b82800160010185558215610538579182015b8281111561053857825182559160200191906001019061051d565b50610544929150610548565b5090565b5b808211156105445760008155600101610549565b60006020828403121561056f57600080fd5b81356001600160a01b038116811461058657600080fd5b9392505050565b600060208083528351808285015260005b818110156105ba5785810183015185820160400152820161059e565b818111156105cc576000604083870101525b50601f01601f1916929092016040019392505050565b634e487b7160e01b600052604160045260246000fd5b600082601f83011261060957600080fd5b813567ffffffffffffffff80821115610624576106246105e2565b604051601f8301601f19908116603f0116810190828211818310171561064c5761064c6105e2565b8160405283815286602085880101111561066557600080fd5b836020870160208301376000602085830101528094505050505092915050565b6000806040838503121561069857600080fd5b823567ffffffffffffffff808211156106b057600080fd5b6106bc868387016105f8565b935060208501359150808211156106d257600080fd5b506106df858286016105f8565b9150509250929050565b60208082526026908201527f4f6e6c7920746865206f776e65722063616e20706572666f726d20746869732060408201526530b1ba34b7b760d11b606082015260800190565b600181811c9082168061074357607f821691505b60208210810361076357634e487b7160e01b600052602260045260246000fd5b5091905056fea26469706673582212203caacfd0dd4925c7556b196b574944e2b2af2eac75d34fc1ee0ee70ea1242f3c64736f6c634300080d0033a26469706673582212202f07e7b9f6f4f0e074c1396395b6f099926796042f2700d21bb90a3ef2e25f1d64736f6c634300080d0033",
  "linkReferences": {},
  "deployedLinkReferences": {}
}